:020000040800F2
:100000008005002001010008032A0008E122000801
:10001000012A000891080008252C000800000000B3
:10002000000000000000000000000000072A000897
:100030009308000800000000052A0008092A0008AB
:100040001B0100081B0100081B0100081B01000820
:100050001B0100081B010008950800081B0100088F
:100060001B0100081B0100081B0100081B01000800
:100070001B0100081B0100081B0100081B010008F0
:100080001B0100081B0100081B0100081B010008E0
:100090001B0100081B0100081B0100081B010008D0
:1000A0001B0100081B0100081B0100081B010008C0
:1000B0001B010008892A00081B0100081B01000819
:1000C0001B0100081B0100081B0100081B010008A0
:1000D0001B0100081B0100081B0100081B01000890
:1000E0001B0100081B0100081B010008DFF80CD0F1
:1000F00000F052FB004800478535000880050020CD
:100100000648804706480047FEE7FEE7FEE7FEE7B1
:10011000FEE7FEE7FEE7FEE7FEE7FEE7852A0008CA
:10012000ED000008202A04DB203A21FA02F0002129
:10013000704721FA02F3D040C2F1200291400843F7
:1001400019467047D2B201E000F8012B491EFBD2DC
:1001500070470022F6E710B513460A4604461946D2
:10016000FFF7F0FF204610BD2DE9FE4F804681EAE3
:100170000300C00F0C46009021F0004123F0004521
:10018000B8EB0200A94105D24046214690461C46E4
:100190000B46024623F00040104347D0270DC7F31B
:1001A0000A00C3F30A510290401A019040286BDA0A
:1001B000C3F3130040F4801B0098924620B1002343
:1001C000D2EB030A63EB0B0B01985946C0F14002D6
:1001D000504600F0FCF906460D4650465946019A35
:1001E00000F004FA10EB08006141002487EA115284
:1001F00084EAE7731A4340D0009A62B3019A012A55
:100200004FEA075215DC001B61EB02014FF0004280
:1002100002EA0752CDE90042001C41F58011324646
:100220002B4600F03BFA03B0BDE8F08F4046214674
:10023000F9E7001B61EB0201001C41F58013001877
:100240005B412018A2F5001747EB030140EAD57087
:10025000B6196D4111E06D084FEA360645EAC075E2
:100260004FEA0752001B61EB0201001C41F58011AF
:1002700049084FEA30000019514132462B4603B07D
:10028000BDE8F04F00F0FBB90098012240000023C8
:10029000D0EB020263EBE073009821464FEAE07472
:1002A000B8EB000061EB0401E9E783F000435BE792
:1002B00081F0004158E72DE9FE4F81EA030404F084
:1002C000004421F0004100944FF0000B23F0004364
:1002D00050EA01045ED052EA03045BD0C3F30A542F
:1002E000C1F30A552C44A4F2F3340194A0FB025448
:1002F000C1F3130141F48011C3F3130343F48013DA
:1003000001FB024400FB034E840A970A44EA81542D
:1003100047EA8357A4FB076802958D0A05FB07850A
:100320004FEA932C04FB0C542705029D4FEA065814
:1003300047EA1637B5EB08056EEB070C870E920EF1
:1003400047EA811742EA8312A7FB0201B6EB0B01D1
:1003500064EB00042B0D43EA0C335E1844EB1C5095
:10036000DA465146E7FB0201C5F313044FEA0B33AB
:1003700043EA14534FEA0432019C43EA0603A4F112
:100380000C040294009CCDE900B400F087F903B09E
:10039000BDE8F08F00200146F9E72DE9F04D81EA34
:1003A000030404F0004B21F0004514464FF0000A0E
:1003B00023F0004150EA050220D054EA01021DD08A
:1003C000C5F30A570246C5F31303C1F31300C1F383
:1003D0000A5640F4801543F48013A7EB0608101B5F
:1003E000D64608F2FD3873EB050002D308F1010888
:1003F00001E092185B41B8F1000F03DA00200146DA
:10040000BDE8F08D00204FF48011064684460EE0D2
:10041000171B73EB050705D3121B63EB050306439C
:100420004CEA010C49084FEA300092185B4150EA4F
:100430000107EDD152EA030012D082EA040083EAF8
:100440000501084305D0101BAB4106D20122002351
:1004500006E000224FF0004302E06FF0010253106B
:100460001AEB06004CEB085110EB0A0041EB0B01B4
:10047000BDE8F04D00F003B970B521F0004303432F
:100480000CD0C1F30A550024D5EB040564EB04033A
:10049000D617AD1AB34102DB0020014670BD20180B
:1004A00041EB025170BD0EB5C10F80EAE070084407
:1004B000CA07002140F233438DE80E000A460B467E
:1004C00000F0ECF803B000BD0EB540F233410291EC
:1004D0000021CDE900110A460B4600F0DFF803B019
:1004E00000BD00F0004230F000400AD0C10D01F51F
:1004F0006071C0F3160042EA0151C208400711437F
:10050000704700200146704701F0004330B421F0ED
:10051000004150EA010206D00A0DA2F56072C1F353
:100520001301002A02DC30BC00207047440F44EA6B
:10053000C104C100E01830BC00EBC25000F068B844
:1005400030B50B46014600202022012409E021FAA3
:1005500002F59D4205D303FA02F5491B04FA02F5A0
:100560002844151EA2F10102F1DC30BD2DE9F05F37
:100570000546002092469B46884606468146402412
:100580001BE02846414647462246FFF7CBFD53462F
:100590005A46C01A914110D311461846224600F01F
:1005A00016F82D1A67EB01084F462246012000215C
:1005B00000F00DF817EB00094E41201EA4F10104D4
:1005C000DFDC484631462A464346BDE8F09F202AF4
:1005D00004DB203A00FA02F1002070479140C2F19A
:1005E000200320FA03F3194390407047202A06DBCA
:1005F000CB17203A41FA02F043EAE07306E041FAF1
:1006000002F3D040C2F120029140084319467047DE
:100610000029A8BF7047401C490008BF20F0010016
:10062000704710B4B0FA80FC00FA0CF050EA0104F4
:1006300004BF10BC704749B1CCF1200421FA04F486
:1006400011FA0CF118BF012121430843A3EB0C015F
:10065000CB1D4FEA00614FEA102042BF002010BCC2
:10066000704700EBC35010440029A4BF10BC704772
:10067000401C490008BF20F0010010BC704710B5B5
:10068000141E73F1000408DA401C41F100019218B5
:100690005B411A4301D120F0010010BD2DE9F04D5E
:1006A00092469B4611B1B1FA81F202E0B0FA80F2B3
:1006B00020329046FFF78BFF04460F4640EA0A00BF
:1006C00041EA0B0153465A46084313D0114653EAF8
:1006D000010019D0C8F140025046FFF723FD05463E
:1006E0000E46504659464246FFF771FF084305D073
:1006F000012004E020463946BDE8F08D0020054386
:1007000046EAE0762C4337430A986305E40AA0EBF7
:1007100008000022FD0A44EA47540A3002D50020AE
:100720000146E9E7010510196941DDE908450019AD
:100730006941BDE8F04DA2E7C1F30A52C1F31301CC
:1007400040F2FF3341F480119A4202DA0020014660
:10075000704740F233439A42A2F2334202DC5242E3
:10076000FFF7E0BCFFF733BF30B5041E71F10004A2
:1007700004DB4FF00044404264EB0101141E73F1AE
:10078000000405DB1C464FF00043524263EB0403B8
:10079000994208BF904230BD064C074D06E0E06824
:1007A00040F0010394E8070098471034AC42F6D3B8
:1007B000FFF7A0FC444200086442000870B50446FC
:1007C00000688168C943C90717D1816821F0010118
:1007D000816000F0D1FB05460AE000BF00F0CCFBD1
:1007E000401B022804D920688068C043C00706D097
:1007F00020688068C043C007F0D0002070BDA06AA8
:1008000040F01000A062E06A40F00100E0620120C8
:1008100070BD0000F8B500260446009600688168A7
:10082000C943C9072DD0816841F001018160164894
:1008300016490068B0FBF1F000E0401E009000286F
:10084000FBD100F099FB054616E000BF00F094FBD9
:10085000401B022810D920688068C043C0070BD015
:10086000A06A40F01000A062E06A40F00100E0627F
:1008700084F824600120F8BD20688068C043C00768
:10088000E4D10020F8BD00001400002040420F0019
:10089000FEE77047012000F073BA72B6FEE7000071
:1008A000F8B50024009490F824202546012A12D09F
:1008B000012280F824204A681F23072A0DD20668E7
:1008C000776B521E02EB820293409F430B6893406A
:1008D0001F43776319E00220F8BD06680D2A0AD28B
:1008E000376BD21F02EB820293409F430B68934009
:1008F0001F43376309E0F76A0D3A02EB8202934027
:100900009F430B6893401F43F7620A6807230668FA
:100910000A2A0AD3F7680A3A02EB420293409F433D
:100920008B6893401F43F76008E0376902EB42028F
:1009300093409F438B6893401F4337610A68102A96
:1009400001D0112A20D1124B02689A4217D1936824
:100950001B0219D4936843F40003936009681029BB
:1009600012D10C490C4A0968B1FBF2F101EB81018B
:10097000490000E0491E00910029FBD104E0816A92
:1009800041F020018162012480F824502046F8BD06
:10099000002401401400002040420F000068C06C99
:1009A000704700002DE9F0414FF0000704003D467C
:1009B0007ED0A06A002628B9E66284F8246020462A
:1009C00000F07EF82046FFF7F9FEA16AC90600D4C0
:1009D00020B1A06A40F01000A06269E0A16A21F491
:1009E000885141F00201A1626268E169237B0A43F8
:1009F00047EA43010A43A1684FF48077B94209D01E
:100A0000012907D05FF0000194F814C0BCF1010F78
:100A100002D00AE03946F7E7F3B1A36A43F02003B6
:100A2000A362E36A43F00103E3622368D3F804C0DE
:100A30002CF4694C4CEA010CC3F804C021688B68A3
:100A4000DFF870C003EA0C0313438B60A168B9425E
:100A50000BD0012909D00CE0DFF85CC0A3690CEBD6
:100A600043330B4343F40061DFE7218A0D05A5F50D
:100A700080152168CB6A23F470032B43CB62216875
:100A800089680E4B1940914208D1E662A16A21F0B3
:100A9000020141F00101A162BDE8F081A06A20F0ED
:100AA000020040F01000A062E06A40F00100E06245
:100AB0000120F1E7FDF7E1FF00E0FFFFFE0E1FFF61
:100AC00000B585B000210091019102910391006869
:100AD0000E49884218D10E48816941F40071816144
:100AE000816901F400710491816941F0040181611F
:100AF0008069694600F00400049002200090032001
:100B00000190044800F048F905B000BD0024014000
:100B100000100240000801402DE9F84300270D466F
:100B20000446009700F028FA804620688168C905CD
:100B300008D5A06A40F02000A06284F8247001204B
:100B4000BDE8F8834168C90503D4C06A10F4700F8A
:100B50002AD0022000F00EFE3B490968B1FBF0F6F6
:100B60002068036939490B424FEA61014FEAA1123B
:100B70001FD1C3684FEA611C13EA0C0F19D1036936
:100B80000B4225D1C068104222D1142023E0681CFA
:100B90000AD02DB100F0F0F9A0EB0800A84203D96B
:100BA00020680068800725D5206800688007EED59A
:100BB0002DE003690B4202D1C168114206D00269DF
:100BC00023490A4206D1C068084203D1542002E0FA
:100BD000292000E0FC204643009816E0681C11D054
:100BE0002DB100F0C9F9A0EB0800A8420AD900987D
:100BF000B04207D2A06A40F00400A06284F82470DA
:100C000003209DE70098401C0090B042E6D3216885
:100C10006FF012000860A06A40F40070A0622068C3
:100C20008068C0F3424007280CD1207B50B9A06AED
:100C300020F48070A062A06AC00403D4A06A40F0CF
:100C40000100A06200207BE71400002024499224C8
:100C50004992240070B5044690F8240001280DD074
:100C6000012084F824002046FFF7D4FD02004FF055
:100C7000000005D084F82400104670BD022070BD2D
:100C8000A16A40F20123994341F48071A1621F4D92
:100C900023681F49AB4218D10E6816F4702F14D088
:100CA000A66A46F48016A6620E68760505D5A66A81
:100CB00026F4005646F48056A662A66AF6040AD5C3
:100CC000E66A26F00606E66206E0A66A26F48016C4
:100CD000A6625E68E9E7E06284F824006FF0020033
:100CE000186020688368C3F34243072B05D1A842EC
:100CF00008D1096811F4702F04D0816841F4801183
:100D00008160B9E7816841F4A001F9E7002801405A
:100D10000424014010B5044690F82400012807D0AF
:100D2000012084F824002046FFF748FD10B107E0B9
:100D3000022010BDA16A21F4885141F00101A16295
:100D4000002184F8241010BD70B5044600F014F999
:100D50000546601C02D004480078044400F00CF9F9
:100D6000401BA042FAD370BD08000020012803D127
:100D700002480168491C0160704700000000002023
:100D8000044910B50A68024202D00860FFF7EEFF7E
:100D900010BD0000140401402DE9F84FDFF8B891B0
:100DA000002409F1040A0AF1040B23460F270BF172
:100DB000040EC9E00125A5402A40AA427DD1674E14
:100DC000D1F804C0ACEB0608B44532D014DCBCF159
:100DD000030F3AD009DCBCF1000F2AD0BCF1010F9F
:100DE0001CD0BCF1020F31D11DE0BCF1110F17D0A6
:100DF000BCF1120F2AD119E0B8F5881F19D006DC12
:100E0000B8F5803F15D0B8F5801F1FD111E0B8F5B7
:100E1000001F0ED0B8F5041F18D10AE0CB6815E00A
:100E2000CB681B1D12E0CB6808330FE0CB680C3396
:100E30000CE08B682BB1012B4FF0080303D0456108
:100E400004E0042302E0056100E00023FF2A01D84A
:100E5000064601E000F104064FEA840501D9A5F138
:100E60002005D6F8008007FA05FC28EA0C0803FAEA
:100E700005F548EA0508C6F800804D68ED0062D522
:100E8000374DAE6946F00106AE61AD6924F0030648
:100E900005F001050095334D06EB050CDCF8085014
:100EA000A607360F07FA06F825EA0805DFF8B88026
:100EB000404503D14FF0000817E044E0DFF8AC8074
:100EC000404502D14FF001080FE0DFF8A480404513
:100ED00002D14FF0020808E0DFF89880404502D1C7
:100EE0004FF0030801E04FF0040808FA06F848EA5A
:100EF0000508CCF808804D68D9F80060ED034D4630
:100F000001D5164300E096432E604D68DAF8006084
:100F1000AD03554601D5164300E096432E604D685B
:100F2000DBF80060ED025D4601D5164300E0964314
:100F30002E604D68DEF80060AD02754601D516439F
:100F400000E096432E60641C0D682A46E5407FF45D
:100F500031AFBDE8F88F000000040140000011101F
:100F6000001002400000014000080140000C014058
:100F700000100140001401400148806870470000E3
:100F80000800002070B5040025D094F83D0000252D
:100F900020B984F83C50204600F008FB242084F857
:100FA0003D002068016821F00101016020680168AE
:100FB00041F4004101602068016821F400410160B2
:100FC00000F048FD4D4A6168914201D84C4900E06B
:100FD0004C49884201D2012070BD4B492368B0FBC7
:100FE000F1F15E6826F03F060E435E60636893424F
:100FF00006D94FF4967359434FF47A73B1FBF3F16A
:101000002368491C1E6A26F03F0631431962616855
:10101000914210D84900401EB0FBF1F2521CC2F3BD
:101020000B02042A01D2042022E0B0FBF1F0401CA4
:10103000C0F30B001CE0A268F2B301EBC10303EBA9
:101040000116431EB3FBF6F35B1C43F480431B0500
:1010500049D092B301EBC10202EB0111401EB0FB7B
:10106000F1F0401CC0F30B0040F4804040F400401D
:101070002168CA694CF6FF739A431043C861D4E9EA
:10108000071001432068026822F0C002114301608A
:10109000D4E9030101432068826848F2FF339A4390
:1010A00011438160D4E9050108432168CA6822F030
:1010B000FF021043C86001E00EE016E020680168FE
:1010C00041F0010101602564202084F83D00256382
:1010D00084F83E50002070BD01EB4106431EB3FB77
:1010E000F6F35B1CB3E70120C2E701EB4101401EB0
:1010F000B0FBF1F0401CC0F30B00B7E7A086010085
:1011000080841E0000093D0040420F002DE9F84F89
:101110000025DDF82890984617468A460446009533
:10112000FFF72AFF064694F83D0020287AD11923BC
:10113000012283492046009601F028FA0028F5D1C3
:1011400094F83C0001286DD0012084F83C00206810
:101150000168C90703D1016841F0010101602068FD
:10116000016821F400610160222084F83D00102014
:1011700084F83E0025646762A4F82A80608D20858B
:101180007048E06233464A465146204601F0C0F8B6
:1011900000287DD1208DDFF8B081202768B101289B
:1011A00014D00228206801681ED041F480610160DB
:1011B0002068416980690090B5E0206841698169D3
:1011C0000091016841F400710160ACE020680168A1
:1011D00021F48061016072B62068416981690091E3
:1011E000016841F400710AE041F40061016072B6E7
:1011F0002068416981690091016821F48061016082
:1012000062B690E0032868D801280CD002284B462B
:101210004FF000024146204600960FD001F0B6F98B
:10122000B0BB10E08AE032464946204601F02DFA74
:1012300070BB20680069616A08706BE001F0A6F974
:1012400030BB72B634E02068016821F4806101602F
:1012500072B620680069616A0870606A401C60624A
:10126000208D401E2085608D401E6085374846F2E7
:10127000A8110068B0FBF1F0C0EBC00000EB8000EB
:101280000090401E009008D020684069C04300E0F4
:1012900029E040070CD50098F3E744F8305F677306
:1012A000A573206940F02000206162B625731AE022
:1012B0002068016841F40071016020680069616A7A
:1012C0000870606A401C6062218D491E2185618D15
:1012D000491E618562B621681AE0324649462046B9
:1012E00001F0D3F910B10120BDE8F88F2068006942
:1012F000616A0870606A401C6062218D491E218508
:10130000618D491E618521684A69D24352070AD41A
:1013100009690170606A401C6062208D401E208552
:10132000608D401E6085208D00287FF46BAF84F8AF
:101330003D7084F83E5084F83C50D5E70220D3E756
:10134000020010000000FFFF040001001400002054
:101350002DE9F84F1F4690468A460446DDF828904E
:10136000FFF70AFE054694F83D0020287FD1192397
:10137000012240492046009501F008F9002876D165
:1013800094F83C00012872D0012084F83C002068C9
:101390000168C90703D1016841F0010101602068BB
:1013A000016821F400610160212084F83D001020D3
:1013B00084F83E0000262664C4F824806785608D8A
:1013C00020852D48E0622B464A465146204601F0D2
:1013D00015F890B9206841698069009036E02A4686
:1013E0004946204601F084F950B1206C042804D10C
:1013F0002068016841F4007101600120BDE8F88FA8
:10140000606A216800780861606A401C6062618DD2
:10141000491E6185218D491E89B221852268536943
:10142000DB435B070BD451B100781061606A401C4C
:101430006062608D401E6085208D401E20852A469A
:101440004946204601F07CF80028CED1208D0028A6
:10145000C5D154F83D0B016841F4007101602020B2
:1014600004F81E09E67766770020C7E7FFE7022049
:10147000C4E70000020010000000FFFF2DE9FF4F4D
:1014800083B09A46DDE9119793460446DDF8408023
:10149000FFF772FD054694F83D0020287FD11923FF
:1014A000012240492046009501F070F8002876D1CD
:1014B00094F83C00012872D0012084F83C00206898
:1014C0000168C90703D1016841F00101016020688A
:1014D000016821F400610160212084F83D00402072
:1014E00084F83E0000262664C4F82480A4F82A90DC
:1014F000608D20852C48E062CDE9007553465A4640
:101500002046049900F0C8FF70B930E02A463946F9
:10151000204601F0EDF858B1206C042804D1206871
:10152000016841F400710160012007B0BDE8F08F4F
:10153000606A216800780861606A401C6062218DE1
:10154000491E89B22185628D521E628522685369C7
:10155000DB435B070BD469B100781061606A401C03
:101560006062208D401E2085608D401E6085208D2C
:101570000028CBD12A463946204600F0E1FF00285A
:10158000CAD154F83D0B016841F40071016020207C
:1015900004F81E09E67766770020C6E7FFE7022019
:1015A000C3E70000020010000000FFFF30B585B067
:1015B000002100910191029103911E4D03681E4C80
:1015C000122103221D48AB4216D1A36943F0080340
:1015D000A361A369039203F008030493C023CDE938
:1015E00000316946FFF7D8FBE06940F40010E06184
:1015F000E06900F4001019E0114DAB4217D1A36966
:1016000043F00803A361A369039203F00803049362
:101610004FF44063CDE900316946FFF7BDFBE06957
:1016200040F48000E061E06900F48000049005B0BF
:1016300030BD00000054004000100240000C01408A
:101640000058004002488168027811448160704768
:1016500008000020074810B5016841F01001016042
:10166000032000F075F80F2000F006F800F024F8D1
:10167000002010BD0020024070B50D4D04464FF40F
:101680007A712878B1FBF0F00A490968B1FBF0F0F3
:1016900000F0C6FB48B9102C07D200222146501E8C
:1016A00000F036F800206C6070BD012070BD0000B5
:1016B00008000020140000200C4808B5816941F0A2
:1016C00001018161816901F001010091C16941F06D
:1016D0008051C161C06900F08050009004484168A9
:1016E00021F0E06141F00071416008BD001002404E
:1016F00000000140002809DB00F01F020121914099
:101700004009800000F1E020C0F80011704700009F
:10171000F0B40E4B1B680C46C3F30223C3F107055C
:10172000042D00D90425191D072901D2002300E04A
:10173000DB1E012606FA05F1491E214099409E4014
:10174000761E16403143F0BC01F092BA0CED00E079
:10175000064900F0070208684FF6FF03184040EA08
:101760000220034A10430860704700000CED00E0BF
:101770000000FA0510B529A401461DCC86B08DE8FD
:101780001D002AA02A4C006804900020012923D0C3
:1017900002293AD010291DD161682268D20119D5D9
:1017A000C1F38342C9031DF8020009D5616804AA88
:1017B000C1F34041515C1F4AB2FBF1F1484301E0E3
:1017C0001D4948436168490204D440005FF00301A9
:1017D000B0FBF1F006B010BD226AC2F3012101296D
:1017E00003D1920701D5C803F4E7022905D1626A43
:1017F000920702D549F64040ECE70329EAD1216877
:101800008903E7D54FF22440E4E700F033F961683B
:10181000C1F38131491C4900DAE7000002030405E5
:10182000060708090A0B0C0D0E0F1010010200002C
:101830000010024000127A0000093D002DE9F84333
:1018400005460078354CC00754D0E0690026C0003A
:1018500008D4E06940F08050E061E069012600F0C2
:10186000805000902E480168C90512D40168804656
:1018700041F480710160FFF77FFB074605E000BF80
:10188000FFF77AFBC01B642823D8D8F80000C005F6
:10189000F6D5206A10F4407021D0A98801F4407177
:1018A00081421CD0206A1F49012220F440700A6046
:1018B00000220A602062C00711D0FFF75DFB0746D7
:1018C00041F2883808E000BFFFF756FBC11B4145D5
:1018D00002D90320BDE8F883206A8007F4D5206A86
:1018E000696820F44070084320621EB1E06920F06E
:1018F0008050E0612878800705D56068A96820F4E9
:101900004040084360602878C00605D56068E968F3
:1019100020F48000084360600020DBE700100240F4
:1019200000700040400442422DE9F0470F46050098
:1019300061D0434E306800F00700B84209D23068E9
:1019400020F0070038433060306800F00700B842EC
:1019500051D128683B4C810712D5400703D56068F8
:1019600040F4E06060602878000703D5606840F4C8
:10197000605060606068A96820F0F0000843606013
:101980002878C00728D06868012810D0216802286C
:1019900010D0890700292EDA616821F00301014384
:1019A0006160FFF7E9FA804641F288390DE021686D
:1019B0008903EFE78901EDE7FFF7DEFAA0EB080105
:1019C000494502D90320BDE8F0876068696800F0E6
:1019D0000C00B0EB810FEFD1306800F00700B84287
:1019E0000BD9306820F0070038433060306800F0D1
:1019F0000700B84201D00120E5E72878400705D567
:101A00006068E96820F4E0600843606028780007B7
:101A100006D56068296920F4605040EAC100606022
:101A200000F038F86168084AC1F30311515CC840FE
:101A30000649086006480068FFF71EFE0020C2E75E
:101A400000200240001002402C4200081400002038
:101A50000C0000200448054900684968044AC1F3A5
:101A60000221515CC8407047140000200010024061
:101A70003C4200080448054900684968044AC1F32B
:101A8000C221515CC8407047140000200010024081
:101A90003C42000812A185B00FC98DE80F0014A0C8
:101AA000144A006804905168134801F00C03042B99
:101AB00010D0082B0ED1C1F38343C9031DF80300D6
:101AC0000AD5516804AAC1F34041515C0A4A504307
:101AD000B0FBF1F005B0704708494843FAE7000051
:101AE00002030405060708090A0B0C0D0E0F10105F
:101AF000010200000010024000127A0000093D00BF
:101B00002DE9F84F040070D02078C04DC00749D0AF
:101B10006868C0F38100012807D06868C0F38100BD
:101B2000022809D16868C00306D52868800339D522
:101B300060680028E7D035E06068B0F5803F0BD0E2
:101B400010B1B0F5A02F11D0286820F480302860A3
:101B5000286820F4802002E0286840F48030286063
:101B6000606890B1FFF708FA06460AE0286840F47A
:101B700080202860F0E700BFFFF7FEF9801B642893
:101B800073D828688003F7D50CE0FFF7F5F906460F
:101B900005E000BFFFF7F0F9801B6428F0D8286843
:101BA0008003F7D420789A4E80074FF001094FF058
:101BB000000839D5686810F00C0F07D06868C0F3CA
:101BC0008100022809D16868C00306D4286880070C
:101BD00014D52069012808D110E02069B0B1C6F8F9
:101BE0000090FFF7C9F9074605E00AE1FFF7C4F9DD
:101BF000C01B0228C4D828688007F7D52868616907
:101C000020F0F80040EAC10028600DE0C6F800802E
:101C1000FFF7B2F9074604E0FFF7AEF9C01B022850
:101C200023D828688007F7D4207800072CD5794876
:101C3000A169D9B1C0F80090FFF79EF9074604E00A
:101C4000FFF79AF9C01B02280FD8686A8007F7D5FA
:101C500071484FF4FA510068B0FBF1F0009000BFFA
:101C60000098411E0091FAD20EE080E0C0F800809A
:101C7000FFF782F9074604E0FFF77EF9C01B022850
:101C800075D8686A8007F7D42078400760D5E8697E
:101C90000027C00008D4E86940F08050E861E86996
:101CA000012700F0805000905C480168C90513D4FA
:101CB0000168834641F480710160FFF75DF9824657
:101CC00006E000BFFFF758F9A0EB0A0064284ED8E1
:101CD000DBF80000C005F5D5E06801280AD008B19E
:101CE000052813D0286A20F001002862286A20F015
:101CF000040002E0286A40F001002862E06841F236
:101D0000883B98B1FFF738F982460BE0286A40F02B
:101D100004002862EEE700BFFFF72EF9A0EB0A01EE
:101D200059455AD8286A8007F6D50CE0FFF724F900
:101D3000824605E0FFF720F9A0EB0A0159454CD88F
:101D4000286A8007F6D41FB1E86920F08050E86166
:101D5000E06988B36968C1F38101022944D002288F
:101D6000C6F8608004D0FFF707F9044638E034E095
:101D7000FFF702F9074604E0FFF7FEF8C01B022850
:101D80002BD828688001F7D4206AB0F5803F05D1B0
:101D90006868A16820F4003008436860D4E908014D
:101DA0000843696821F4741108436860C6F86090BC
:101DB000FFF7E2F8044606E025E000BFFFF7DCF895
:101DC000001B022809D828688001F7D51BE000BF56
:101DD000FFF7D2F8001B022802D90320BDE8F88FD4
:101DE00028688001F4D40EE00128F7D06868226AE0
:101DF00000F48031914204D1616A00F4701088428D
:101E000001D00120EAE70020E8E7000000100240CE
:101E10000000424280044242140000200070004052
:101E200010B5401EB0F1807F01D3012010BD4FF0EE
:101E3000E02460610F21601700F01AFF0020A0610C
:101E400007202061002010BD7047704770B590F8E2
:101E50003C20012A26D0012480F83C40022280F850
:101E60003D2003685A689D6822F070060A68324374
:101E70005A600D4B02689A4208D0B2F1804F05D0EB
:101E80000A4B9A4202D00A4B9A4204D1496825F083
:101E900080031943916080F83D40002180F83C1098
:101EA000084670BD022070BD002C014000040040B7
:101EB0000008004010B5040003D094F83D0010B1B4
:101EC00007E0012010BD002084F83C00204600F00F
:101ED0001FF8022084F83D00211D206800F0DAFD83
:101EE000012084F8460084F83E0084F83F0084F81E
:101EF000400084F8410084F8420084F8430084F8EC
:101F0000440084F8450084F83D00002010BD000026
:101F100008B500680B49884212D10B48C16941F0ED
:101F20000201C161C069002200F002000090114668
:101F30001D20FFF7EDFBBDE808401D20FFF7DABBD1
:101F400008BD0000000400400010024090F83D1061
:101F5000012901D001207047022180F83D1001685D
:101F6000CA6842F00102CA6000680B49884208D082
:101F7000B0F1804F05D00949884202D00849884213
:101F800004D1816801F00701062903D0016841F0FE
:101F90000101016000207047002C01400004004056
:101FA0000008004070B5044690F83C00012817D0A6
:101FB000012584F83C50022084F83D0020688268A6
:101FC00022F0770222F47F4282600868502830D0E5
:101FD0000DDC20284DD005DC98B310283BD148E01B
:101FE000022070BD302844D0402834D139E0602828
:101FF00028D0702806D0B0F5805F2CD0B0F5005FF7
:1020000029D10AE0CB68D1E90121206800F078FDF0
:102010002068816841F0770109E0CB68D1E90121AE
:10202000206800F06DFD2068816841F48041816086
:1020300011E0CA684968206800F074FD50212068EA
:1020400007E016E0CA684968206800F07CFD60215E
:10205000206800F05FFD84F83D50002084F83C00CB
:1020600070BDCA684968206800F05CFD40212068A6
:10207000EFE7226801461046EBE7704770B504466B
:10208000006801694FF00005C943890715D4C1688C
:10209000C943890711D4E91E016101202077206816
:1020A00080698007204602D0FFF7E7FF04E000F0D8
:1020B00098F8204600F096F8257720680169C94312
:1020C000490717D4C168C943490713D46FF0040105
:1020D0000161022020772068806910F4407F20464B
:1020E00002D0FFF7CAFF04E000F07BF8204600F0C2
:1020F00079F8257720680169C943090716D4C168B2
:10210000C943090712D46FF0080101610420207748
:102110002068C0698007204602D0FFF7AEFF04E0C8
:1021200000F05FF8204600F05DF82577206801692F
:10213000C943C90617D4C168C943C90613D46FF08F
:1021400010010161082020772068C06910F4407FE9
:10215000204602D0FFF791FF04E000F042F820464D
:1021600000F040F8257720680169C943C90708D104
:10217000C168C943C90704D1891E0161204600F026
:1021800033F820680169C943090609D4C168C94305
:10219000090605D46FF0800101612046FFF754FE67
:1021A00020680169C943490609D4C168C943490681
:1021B00005D46FF040010161204600F027F8206847
:1021C0000169C94389060BD4C168C943890607D48C
:1021D0006FF0200101612046BDE87040FFF735BE79
:1021E00070BD70477047000000680549884205D1FE
:1021F0000448054A01681160002101607047000031
:10220000000400400000002004000020704770B56A
:10221000040004D094F83D00002510B106E0012030
:1022200070BD84F83C50204600F022F8242084F849
:102230003D002068C16821F40051C160204600F0D3
:1022400095FC2068016921F4904101612068416991
:1022500021F02A0141612068C16841F40051C16048
:102260002564202084F83D0084F83E00002070BDE5
:1022700030B585B000240094019402940394006862
:102280001449884224D11448816941F48041816114
:10229000816901F480410491816941F00401816107
:1022A00080690E4D00F0040004904FF4007000901F
:1022B000022001900320039069462846FEF76CFD3A
:1022C0002815CDE90004694628460294FEF764FD0E
:1022D00005B030BD00380140001002400008014048
:1022E000FEE701684A69D24352050FD46FF4806259
:1022F0004A61002140F8301F202242738173026935
:1023000042F004020261017301207047002070470F
:102310002DE9F84F0446C06A1E4693460D462168D3
:102320000A6842F480620A60082807D0012805D0B4
:1023300010F5803F02D0206B112804D1206801687D
:1023400041F4807101604FF001195B46002249465B
:102350002046009600F01AF94FF4007840B120684A
:102360000068C00501D5C4F840800320BDE8F88F9F
:102370002069DFF884A0B0F5804F0FD006202168D7
:1023800000EAD51747F0F000086133465A460AF1D3
:102390000601204600F02EF958BB03E0E8B240F0F9
:1023A00001001CE02168E8B2086133465A465146F4
:1023B000204600F01FF9E0B9206841698169009169
:1023C000016841F4807101605B4600224946204665
:1023D000009600F0DBF80028C1D147F0F100216839
:1023E000086133465A465146204600F003F900285A
:1023F000BCD00120BAE7000002000100F8B5044695
:10240000C06A1E460D461746082807D0012805D089
:1024100010F5803F02D0206B122804D1206801689B
:1024200041F480710160134600224FF001112046F3
:10243000009600F0ABF840B120680068C00502D5F6
:102440004FF4007020640320F8BD2069B0F5804F80
:102450000ED00620216800EAD51040F0F000086197
:1024600033463A460B49204600F0C4F878B902E0FA
:1024700005F0FE0000E0E8B2216808610549334636
:102480003A46891F204600F0B5F80028DCD001202C
:10249000F8BD0000080001002DE9F843044600687B
:1024A0000D46DDE9089701689846164641F48071AB
:1024B00001604B4600224FF001112046009700F0CA
:1024C00065F848B120680068C00502D54FF4007077
:1024D00020640320BDE8F883216805F0FE00086150
:1024E0003B464A461549204600F084F888B92068E2
:1024F0004169806900903A464946204600F0F8F864
:1025000048B1206C042804D12068016841F40071AE
:1025100001600120DEE7F5B2B8F1010F09D02168B2
:10252000300A08613A464946204600F0E1F80028A2
:10253000E7D1206805610020CCE70000020001001F
:1025400070B516460D4604460DE02046FFF7C9FE5D
:1025500008B1012070BD681C05D0FEF70DFD801B81
:10256000A84207D835B120684069C0434007ECD481
:10257000002070BD002044F8300F20216173A0734B
:10258000216941F0200121612073E2E72DE9F04744
:102590001E4690460D460446C1F30747DDF82090DD
:1025A00008E0701C06D0FEF7E7FCA0EB0900B04283
:1025B0000FD876B12068012F18D0806925EA000075
:1025C0000004000C14D000214145EAD00020BDE8F1
:1025D000F087002044F8300F20216173A073216937
:1025E00041F02001216120730120F0E74069E5E717
:1025F0000121E9E72DE9F0479A4691460E46044647
:1026000000254FF02008C1F3074725E02068406906
:10261000C043400514D42068016841F40071016092
:1026200021686FF480604861256384F83D8084F8F8
:102630003E50206C40F00400206484F83C501FE0C1
:10264000B9F1FF3F08D0FEF797FCA0EB0A0149451E
:102650000CD8B9F1000F09D02068012F13D0806980
:1026600026EA00000004000C0BD0CFE744F8305FEE
:1026700084F80D80A573206940F020002061257347
:102680000120BDE8F0874069EAE72DE9F041002527
:1026900090460E460446202717E04069C043C00616
:1026A0000CD454F8301B6FF01000486144F81059F6
:1026B0006777A577206A2062257717E0FEF75CFC34
:1026C000A0EB0800B04208D83EB120684169C94378
:1026D0004906E2D40020BDE8F08144F8305F67731A
:1026E000A573206940F02000206125730120F2E7E6
:1026F00070B516460D4604460DE02046FFF7F1FD85
:1027000008B1012070BD681C05D0FEF735FC801BA8
:10271000A84207D835B120684069C0430006ECD410
:10272000002070BD002044F8300F20216173A07399
:10273000216941F0200121612073E2E710B54FF4D7
:10274000004280210A4800F05DF844F64F028021E3
:10275000074800F057F84FF4E4728021044800F075
:1027600041F8BDE810408021014800F021B8000088
:102770004C000020FEB506460CA00A2400680D4659
:10278000CDE90040012301AA3046FEF7E1FD022316
:1027900002AA294630460094FEF7B8FC08B1FF2093
:1027A000FEBDBDF8080040BAFEBD000002000000FA
:1027B000FEB5064600200A24CDE900400D4601235F
:1027C00001AA3046FEF7C4FD022302AA294630467C
:1027D0000094FEF79BFC08B1FF20FEBDBDF8080089
:1027E00040BAFEBD1CB505238DF80430130A8DF8E0
:1027F00005308DF806200A220092032301AAFEF775
:10280000A7FD1CBD1CB500238DF80430130A8DF8FC
:1028100005308DF806200A220092032301AAFEF754
:1028200097FD1CBD3EB5002410480094019402940D
:102830000D498460016001250573047505614FF43D
:1028400060214460C161FEF7ADF808B1FEF725F8DC
:102850000095CDE9015469460448FEF721F80028A7
:1028600001D0FEF71AF83EBD002401401C000020F4
:1028700000B585B0002003901648816941F0200121
:102880008161816901F020010491816941F00401B5
:102890008161816901F004010491816941F00801BD
:1028A00081618069694600F0080004900120009071
:1028B00009480190022002900848FEF76DFA0022B4
:1028C00011460620FEF724FF0620FEF713FF05B091
:1028D00000BD00000010024000001110000801407F
:1028E0000D4810B50B4901600C49416000214FF4BF
:1028F00080428160C0E9031241618161C16101626E
:10290000FEF740FB002803D0BDE81040FDF7C5BF2F
:1029100010BD0000005400404C000020A0860100C3
:102920000D4810B50B4901600C49416000214FF47E
:1029300080428160C0E9031241618161C16101622D
:10294000FEF720FB002803D0BDE81040FDF7A5BF2F
:1029500010BD000000580040A0000020A08601002B
:1029600010B586B000241748009401940294039493
:1029700004941349059401604FF4FA61C0E901140D
:1029800048F69F41C0E903148461FFF793FA08B148
:10299000FDF783FF4FF48050009069460948FFF728
:1029A00001FB08B1FDF779FF049404A905480594DB
:1029B000FFF74CFA002801D0FDF76FFF06B010BDFD
:1029C00000040040F40000200C4810B50A490160E2
:1029D0004FF416514160002181600C22C160C0E9B2
:1029E00004128161C161FFF712FC002803D0BDE829
:1029F0001040FDF752BF10BD003801403C010020DF
:102A0000FEE7FEE770477047FEF71CBE30B593B097
:102A100028216846FDF79DFB14210AA8FDF799FBC4
:102A2000002501200F9510951195010412958DE850
:102A3000230004904FF4E010CDE90810022407941D
:102A40006846FFF75DF808B172B6FEE70AA90F20E5
:102A500081E831004FF48060CDE90D0502210AA81C
:102A6000FEF762FF08B172B6FEE74FF40040119026
:102A70000F940FA8FEF7E2FE002801D072B6FEE721
:102A800013B030BD704700000148FFF7F7BA0000EF
:102A9000F4000020F0B50268164B174C174D4FF0AC
:102AA0008047984205D0B84203D0A04201D0A84246
:102AB00003D122F070064A683243984205D0B842EA
:102AC00003D0A04201D0A84203D122F44074CA68C6
:102AD00022434C6922F08002224302608A68C2626B
:102AE0000A688262984201D109690163012141614A
:102AF000F0BD0000002C0140000400400008004030
:102B000010B5846842EA032224F47F440A43224336
:102B1000826010BD826822F070020A4342F0070111
:102B20008160704710B5036A046A24F001040462EE
:102B3000846924F0F00444EA021423F00A020A43F0
:102B40008461026210BD10B5036A23F010030362B2
:102B50008369046A23F4704343EA023224F0A00339
:102B600043EA01118261016210BD000070B50446A4
:102B700000680169E26821F4405111430161216953
:102B8000A0680843616908432168CA6841F20C6380
:102B90009A430243CA6020684169A26921F44071E6
:102BA000114341611E492068884202D1FEF762FF4D
:102BB00001E0FEF74FFF00EBC00101EB001260687F
:102BC00064218000B2FBF0F3B3FBF1F36FF0180661
:102BD0007343B2FBF0F5B2FBF0F605EB830532234D
:102BE00003EB0515B5FBF1F5B6FBF1F605F0F005C5
:102BF00005EB0615B2FBF0F6B2FBF0F0B0FBF1F01E
:102C00006FF01802504306EB800003EB0010B0FB9E
:102C1000F1F0216800F00F002844886070BD0000CA
:102C200000380140FEE700000FB4054B10B503A9C2
:102C3000044A029800F0FEF810BC5DF814FB000096
:102C40006D350008180000200FB4084B10B504A91A
:102C500002AA039800F0EEF8044602A9002000F052
:102C600080FC204610BC5DF814FB000063350008B2
:102C70000907090E002804DB00F1E02080F80014A9
:102C8000704700F00F0000F1E02080F8141D70473D
:102C900002E008C8121F08C1002AFAD17047704725
:102CA000002001E001C1121F002AFBD17047000083
:102CB0002DE9FF5F82B00021DDE90430020DDDF86F
:102CC00040B0034318D044F61050A2F2FF32424302
:102CD0001514119801281FD0A5EB0B00401C5FEACA
:102CE000000A4FF000064E4FDFF83891B0465046CC
:102CF00015D5CAF1000413E0119801244AA3012854
:102D000001D16FEA0B010298119AC0E90031C0E9C4
:102D1000024206B0BDE8F09FCBF10000DFE70446B9
:102D20000021404A491842EB0450CDE9001012E05E
:102D3000E00707D032463B4640464946FDF7BBFA1E
:102D40008046894632463B4610461946FDF7B3FA9F
:102D500006460F466410002CEAD1DDE90401DDE9E6
:102D60000023BAF1000F06DAFDF7A5FA42464B46FA
:102D7000FDF7A1FA05E0FDF710FB42464B46FDF7D3
:102D80000CFB04460E460022284BFDF7EDFC03D851
:102D90004FF0FF30014607E00022254B2046314628
:102DA000FDF7E2F9FDF7C8FC102409E0002C0ADB6E
:102DB0000A220023FDF7DAFB039B30321A55641E0A
:102DC00050EA0102F2D1641C039AC4F111031444C5
:102DD000119A012A03D0012208430DD10AE00843C9
:102DE00004D000204FF0110B119072E7A3EB0B05FC
:102DF0006D1E0DE05B4504DD4FF0000205F101059D
:102E000004E003DA4FF00002A5F10105002AECD03E
:102E100002981199C0E90231C0E9004579E7000044
:102E2000000014400000F03F300000000000F043BC
:102E30000000E03F2DE9FF4F95B09B4689460646CE
:102E400000250FE2252877D100242746F84A0121E2
:102E5000059400E0044316F8013F203B01FA03F01B
:102E60001042F7D130782A2811D06FF02F03307834
:102E7000A0F13002092A16D8059A44F0020402EBA8
:102E8000820203EB42021044761C0590EFE759F8EA
:102E9000042B0592002A03DA504244F400540590B2
:102EA00044F00204761C30782E2816D116F8010F53
:102EB00044F004042A280DD06FF02F023078A0F1DE
:102EC0003003092B09D807EB870302EB4303C7182C
:102ED000761CF3E759F8047B761C30786C280FD009
:102EE00006DC4C2817D068280DD06A2814D104E0DD
:102EF000742810D07A280FD10DE044F400140AE0B1
:102F000044F4801401E044F440147278824202D107
:102F100004F58014761C761C307866280BD013DC00
:102F2000582877D009DC002875D04528F6D04628E7
:102F3000F4D047281AD19DE118E0632835D06428E1
:102F400079D0652812D195E1702873D008DC672804
:102F5000F1D069286FD06E280DD06F2806D1B5E06A
:102F600073282CD0752875D0782874D05A461799B4
:102F700090476D1C75E1C4F30250022809D0032864
:102F80000DD0D9F8001004280DD00D6009F1040906
:102F900067E1D9F80010EA17C1E90052F6E7D9F85D
:102FA00000100D80F2E70D70F0E719F8041B8DF8A2
:102FB000001000208DF80100EA46012003E059F8D6
:102FC00004AB4FF0FF3061074FF0000102D40DE079
:102FD00008F101018846B9420FDA8045F8DB1AF89A
:102FE00008100029F4D108E008F101018846814267
:102FF000FADB1AF808100029F6D105985B46A0EB19
:10300000080721463846179A00F094FA284400EB46
:10301000080507E04DE029E10DE01AF8010B5A46DA
:1030200017999047B8F10108F7D25B462146384618
:10303000179A13E142E00A220092C4F302524FF0C1
:10304000000A022A08D059F804CB032A4FEAEC718F
:103050000AD00DE029E02AE009F1070121F007027A
:10306000F2E802C1914609E00FFA8CFC4FEAEC71DC
:10307000042A03D14FFA8CFC4FEAEC71002907DADD
:103080000A460021DCF1000C61EB02012D2202E076
:10309000220504D52B228DF80420012203E0E2074B
:1030A00001D02022F7E7904659E00A2102E01022E1
:1030B0000DE010214FF0000A00910BE010224FF0BC
:1030C000000A44F004040827009203E008224FF0AD
:1030D000000A0092C4F30252022A05D059F804CB28
:1030E0000021032A08D009E009F1070121F00702B5
:1030F000F2E802C1914605E01FFA8CFC042A01D1D6
:103100000CF0FF0C4FF00008220728D5702806D0DD
:10311000009B83F0100353EA0A0305D00EE040221F
:103120008DF80420012208E05CEA010206D030227A
:103130008DF804208DF8050002229046009B83F054
:10314000080353EA0A030AD15CEA010201D16207CB
:1031500005D530228DF804204FF001087F1E582835
:1031600004D034A003900EA802900DE036A0F9E739
:1031700053466046009AFDF7F9F984460398825C4D
:103180000298401E029002705CEA0100F0D10298A1
:1031900006A9081A00F1200A600702D524F4803439
:1031A00000E00127574502DDA7EB0A0000E0002000
:1031B00000EB0A01009005984144401A0590E00395
:1031C00006D45B462146179A059800F0B3F90544EA
:1031D000002706E001A85A46C05D179990476D1C6C
:1031E0007F1C4745F6DBE0030CD55B462146179A6A
:1031F000059800F09FF9054404E030205A461799DD
:1032000090476D1C0099481E00900029F5DC08E0ED
:10321000029802995A460078491C029117999047E2
:103220006D1CBAF10001AAF1010AF1DC65E10000B0
:10323000092801003031323334353637383961628C
:103240006364656600000000303132333435363750
:1032500038394142434445460000000000F058F927
:103260000544761C307800287FF4ECAD19B0284670
:10327000BDE8F08F620700D4062709F1070222F0AB
:10328000070CFCE80223E14603F000485FEA080C63
:1032900002D00FF2702C0DE05FEA045C02D50FF251
:1032A000682C07E05FEAC47C02D00FF2602C01E0DA
:1032B000AFF2700C4FF0FF3823F00043CDF850C050
:1032C00065280CD006DC452809D046281DD04728A3
:1032D0003DD13DE0662818D067287ED138E0002136
:1032E000112F01DB112000E0781CCDE9000106A9B7
:1032F0000EA8FFF7DDFCDDE90F010E9A0391002116
:10330000009207F1010A04914DE04FF00040009750
:10331000CDE9011006A90EA8FFF7CAFCDDE90F02EE
:1033200003920E9B11990022DDF80CA000930492E9
:1033300011B9791C00EB010AB7EB0A0004D4C0F103
:10334000FF3007F1010A0490AAEB0700019044E066
:10335000012F00DA01270021112F01DD112000E0EB
:103360003846CDE9000106A90EA8FFF7A1FCDDE96A
:103370000F010E9A0391002104910092BA46210791
:103380000CD40399514500DA8A46BAF1010F05DDE4
:10339000009AAAF10101515C302908D0B84202DA42
:1033A00010F1040F06DA0121CDE9011015E0AAF1B0
:1033B0000101E9E7002805DC049901440491AAEB26
:1033C000000102E0411C514500DD8A460499401A83
:1033D000401C01904FF000400290200704D4019857
:1033E000504501DBCDF8048000208DF84F00029895
:1033F0000DF14F07B0F1004F25D02B200E90029811
:103400004FF0020800280CDA404202902D200E9066
:1034100007E00A210298FDF793F83031029007F88F
:10342000011DB8F10001A8F10108F2DC02980028A2
:10343000EFD1791E0E980870307800F0200040F02F
:10344000450007F8020D12A8C01B00F107081498E8
:10345000007800B1012000EB0A01019801EBE07156
:1034600005984144401A401E0590E00306D45B468F
:103470002146179A059800F05DF8054414980078E5
:1034800018B15A46179990476D1CE00324D55B4646
:103490002146179A059800F04DF805441CE0049861
:1034A000002807DBDDE90301884203DD0098405C6A
:1034B000179901E0179930205A469047049805F172
:1034C0000105401C04900198401E019004D12E205B
:1034D0005A46179990476D1CBAF10001AAF1010AEA
:1034E000DDDC05E017F8010B5A46179990476D1C73
:1034F000B8F10001A8F10108F4DC5B462146179AF7
:103500000598ABE62D0000002B0000002000000015
:103510002DE9F041044600251E461746880404D4D0
:1035200005E039462020B0476D1C641EF9D52846B9
:10353000BDE8F0812DE9F041044600251E46904685
:10354000C80301D5302700E02027880404D505E012
:1035500041463846B0476D1C641EF9D52846BDE883
:10356000F0810A68531C0B601070704704490A68A8
:103570005206FCD5024AC1B2121D1160704700000C
:103580000038014086B00025FEF764F8FFF73EFAE8
:10359000FFF76EF9FFF7C4F9FFF7E2F9FFF7A0F9BB
:1035A000FFF740F9FFF710FA6048FEF7CFFC00F094
:1035B00055F9FFF7C3F802235DA200211A2000F09D
:1035C000BDF902235DA21946002000F0B7F90223DD
:1035D0005CA20421002000F0B1F902235BA20621C5
:1035E000002000F0ABF900245A48FDF733FB0A2114
:1035F0005848FDF791FA5748FDF78CFB5548FDF701
:10360000CDF9641C0544242CEED32420B5FBF0F046
:10361000FCF75AFF4FF066373A464F4BFCF74BFE2C
:103620006FF00B02FCF728FFFCF76EFF0025FCF79C
:1036300058FF04460E463346224648A0FFF7F4FAE8
:103640002246334648A16846FFF7FEFA02236A463F
:103650000621322000F072F980214548FFF78AF8F0
:10366000FCF732FF0022434BFCF725FE0022424BC1
:10367000FCF793FEFCF748FFFCF733FF04460E46C9
:10368000224633463DA0FFF7CFFA224633463EA0FE
:10369000FFF7CAFA2246334633A16846FFF7D4FA49
:1036A00002236A461946322000F048F9394800687A
:1036B000FCF7F9FE3A46384BFCF7FDFD374A384B2C
:1036C000FCF7F9FD374A384BFCF7F5FD02460B468F
:1036D00000203649FCF761FE0022354BFCF7E5FD82
:1036E000FCF712FF3349344A0144914212D2FCF7ED
:1036F000F8FE0E4604462246334630A16846FFF7E0
:10370000A3FA02236A460421322000F017F9224668
:10371000334607E002232BA20421322000F00EF9E9
:10372000002213462AA0FFF77FFA5CE7F40000208E
:103730004D756C74696D657465720000566F6C3AF6
:10374000000000005265733A000000004375723AB1
:10375000000000001C00002066660A402330303064
:103760003530353A25660000252E3366000000000E
:103770004C0000200000F43F00408F4023303030E8
:103780003530313A25660000233030303730303A5A
:1037900025660000040000206666F63F295C8FC2A3
:1037A000F5A8574095D626E80B2E113E0000F03FB5
:1037B0000070A74051B81EC25108E209252E32669A
:1037C00000000000302E303030303030000000007B
:1037D000233030303530333A2566000001B584B0EF
:1037E000012104A864228DE807000B4600227821FD
:1037F0000248FDF743FE05B000BD0000A000002018
:1038000001B584B0012104A864228DE807000B46AD
:10381000402278210248FDF731FE05B000BD0000CE
:10382000A000002070B506465FF0000404F1B0006F
:10383000C0B2FFF7D3FF0020FFF7D0FF1020FFF743
:10384000CDFF00253046FFF7DBFF6D1CEDB2802D6C
:10385000F8D3641CE4B2082CE8D370BD10B5642022
:10386000FDF772FAAE20FFF7B9FF2020FFF7B6FF91
:103870001020FFF7B3FFB020FFF7B0FFC820FFF71D
:10388000ADFF0020FFF7AAFF1020FFF7A7FF4020A1
:10389000FFF7A4FF8120FFF7A1FFFF20FFF79EFFA6
:1038A000A120FFF79BFFA620FFF798FFA820FFF7B6
:1038B00095FF3F20FFF792FFA420FFF78FFFD32053
:1038C000FFF78CFF0020FFF789FFD520FFF786FF69
:1038D000F020FFF783FFD920FFF780FF2220FFF7BA
:1038E0007DFFDA20FFF77AFF1220FFF777FFDB205A
:1038F000FFF774FF2020FFF771FF8D20FFF76EFFA9
:103900001420FFF76BFFAF20FFF768FFBDE8104002
:103910000020FFF787BF10B50446B031C8B2FFF7EB
:103920005DFF102040EA1410FFF758FF04F00F006D
:10393000BDE8104040F00100FFF750BF2DE9F0470F
:10394000002591468A460446012B22D0DFF8BC8030
:10395000022B24D155E02038C7B27E2C04D90AF1BD
:103960000100002400F0FF0A51462046FFF7D3FF74
:1039700007EB4700002608EB4007B85DFFF740FF64
:10398000761CF6B2062EF8D3A41D6D1CE4B2EDB27F
:1039900001E0DFF87C8019F805000028DBD1BDE8E4
:1039A000F0872038C7B2782C04D90AF1010000242E
:1039B00000F0FF0A51462046FFF7ADFF5FF000061A
:1039C00006EB071118F80100FFF71AFF761CF6B294
:1039D000082EF5D30AF10100C1B22046FFF79BFF84
:1039E0005FF0000606EB071101EB0800007AFFF715
:1039F00007FF761CF6B2082EF4D308346D1CE4B22F
:103A0000EDB219F805000028CBD1C8E73C3C00080E
:103A1000143A00080000000000000000002F000021
:103A200000000700070000147F147F1400242A7F81
:103A30002A12006264081323003649552250000000
:103A40000503000000001C224100000041221C0070
:103A50000014083E08140008083E0808000000A0F2
:103A600060000008080808080000606000000020EE
:103A700010080402003E5149453E0000427F4000CC
:103A8000004261514946002141454B310018141252
:103A90007F10002745454539003C4A49493000011F
:103AA0007109050300364949493600064949291E6E
:103AB00000003636000000005636000000081422D0
:103AC00041000014141414140000412214080002D0
:103AD0000151090600324959513E007C1211127CF5
:103AE000007F49494936003E41414122007F414122
:103AF000221C007F49494941007F09090901003E14
:103B00004149497A007F0808087F0000417F410051
:103B1000002040413F01007F08142241007F4040C7
:103B20004040007F020C027F007F0408107F003EAF
:103B30004141413E007F09090906003E4151215E95
:103B4000007F091929460046494949310001017F92
:103B50000101003F4040403F001F2040201F003F28
:103B60004038403F006314081463000708700807DA
:103B700000615149454300007F41410000552A55ED
:103B80002A55000041417F00000402010204004068
:103B9000404040400000010204000020545454788A
:103BA000007F4844443800384444442000384444AA
:103BB000487F00385454541800087E090102001848
:103BC000A4A4A47C007F080404780000447D400085
:103BD000004080847D00007F102844000000417F69
:103BE0004000007C04180478007C08040478003845
:103BF0004444443800FC242424180018242418FCCD
:103C0000007C0804040800485454542000043F4435
:103C10004020003C4040207C001C2040201C003CF8
:103C20004030403C004428102844001CA0A0A07C48
:103C3000004464544C441414141414140000000080
:103C4000000000000000000000000000000000F87C
:103C500000000000000000333000000000100C06DF
:103C6000100C0600000000000000000040C078407A
:103C7000C0784000043F04043F040400007088FC46
:103C800008300000001820FF211E0000F008F0009E
:103C9000E018000000211C031E211E0000F008880F
:103CA000700000001E2123241927211010160E0079
:103CB000000000000000000000000000000000E024
:103CC0001804020000000007182040000002041839
:103CD000E00000000040201807000000404080F095
:103CE000804040000202010F01020200000000F0CB
:103CF000000000000101011F01010100000000009F
:103D00000000000080B07000000000000000000013
:103D1000000000000001010101010101000000009C
:103D20000000000000303000000000000000000033
:103D300080601804006018060100000000E0100810
:103D40000810E000000F102020100F00001010F8E5
:103D5000000000000020203F202000000070080824
:103D600008887000003028242221300000300888A4
:103D7000884830000018202020110E000000C020CC
:103D800010F8000000070424243F240000F80888ED
:103D9000880808000019212020110E0000E010887A
:103DA00088180000000F112020110E0000380808AC
:103DB000C83808000000003F0000000000708808BC
:103DC00008887000001C222121221C0000E010083D
:103DD0000810E0000000312222110F00000000C096
:103DE000C000000000000030300000000000008033
:103DF0000000000000008060000000000000804023
:103E0000201008000001020408102000404040403B
:103E1000404040000404040404040400000810208E
:103E200040800000002010080402010000704808D3
:103E30000808F0000000003036010000C030C8283B
:103E4000E810E0000718272423140B000000C038F6
:103E5000E0000000203C23020227382008F8888870
:103E600088700000203F202020110E00C03008087C
:103E700008083800071820202010080008F8080853
:103E80000810E000203F202020100F0008F888884C
:103E9000E8081000203F20202320180008F8888818
:103EA000E8081000203F200003000000C030080890
:103EB0000838000007182020221E020008F8080019
:103EC0000008F808203F210101213F20000808F8E0
:103ED000080800000020203F202000000000080803
:103EE000F8080800C08080807F00000008F888C0C3
:103EF00028180800203F20012638200008F8080074
:103F000000000000203F20202020300008F8F800AA
:103F1000F8F80800203F003F003F200008F830C0BC
:103F20000008F808203F200007183F00E0100808AC
:103F30000810E0000F10202020100F0008F80808DB
:103F40000808F000203F210101010000E0100808EE
:103F50000810E0000F18242438504F0008F8888813
:103F600088887000203F2000030C302000708808F3
:103F7000080838000038202121221C00180808F801
:103F8000080818000000203F2000000008F8080082
:103F90000008F808001F202020201F000878880053
:103FA00000C83808000007380E010000F80800F8C3
:103FB0000008F800033C0700073C0300081868806D
:103FC0008068180820302C03032C30200838C800E3
:103FD000C83808000000203F200000001008080832
:103FE000C83808002038262120201800000000FED4
:103FF000020202000000007F40404000000C30C080
:1040000000000000000000010638C00000020202AB
:10401000FE000000004040407F000000000004025D
:104020000202040000000000000000000000000088
:104030000000000080808080808080800002020478
:104040000000000000000000000000000000808070
:10405000808000000019242222223F2008F80080DE
:1040600080000000003F112020110E0000000080A1
:1040700080800000000E1120202011000000008030
:104080008088F800000E112020103F200000808062
:1040900080800000001F222222221300008080F076
:1040A000888888180020203F2020000000008080A1
:1040B00080808000006B94949493600008F80080E6
:1040C00080800000203F210000203F200080989841
:1040D000000000000020203F2020000000000080A1
:1040E0009898000000C08080807F000008F80000E1
:1040F00080808000203F24022D302000000808F836
:10410000000000000020203F2020000080808080F0
:1041100080808000203F20003F20003F8080008082
:1041200080800000203F210000203F200000808090
:1041300080800000001F202020201F008080008041
:104140008000000080FFA12020110E0000000080F0
:1041500080808000000E112020A0FF8080808000E1
:104160008080800020203F2120000100000080800E
:10417000808080000033242424241900008080E003
:10418000808000000000001F2020000080800000D0
:1041900000808000001F202020103F2080808000B1
:1041A0000080808000010E300806010080800080C1
:1041B000008080800F300C030C300F0000808000E6
:1041C000808080000020312E0E3120008080800011
:1041D0000080808080818E701806010000808080C1
:1041E000808080000021302C22213000000000005F
:1041F000807C020200000000003F40400000000000
:10420000FF00000000000000FF0000000002027C30
:10421000800000000040403F000000000006010157
:104220000202040400000000000000000000000082
:104230000000000001020304060708090000000056
:104240000102030464420008000000201C0000007A
:10425000902C0008804200081C000020640500002B
:10426000A02C000800000000000000000100000079
:1042700010000000000000000024F4000000000016
:04000005080000ED02
:00000001FF
